:100000000C9462000C948A000C948A000C948A0070
:100010000C948A000C948A000C948A000C948A0038
:100020000C948A000C948A000C948A000C948A0028
:100030000C948A000C948A000C948A000C948A0018
:100040000C9424030C948A000C94F2020C94CC02BD
:100050000C948A000C948A000C948A000C948A00F8
:100060000C948A000C948A000000000024002700F1
:100070002A0000000000250028002B0000000000DE
:1000800023002600290004040404040404040202DA
:100090000202020203030303030301020408102007
:1000A0004080010204081020010204081020000012
:1000B0000008000201000003040700000000000027
:1000C0000000020511241FBECFEFD8E0DEBFCDBF78
:1000D00011E0A0E0B1E0ECEBFAE002C005900D9277
:1000E000A631B107D9F721E0A6E1B1E001C01D9228
:1000F000A83CB207E1F710E0C2E6D0E004C02197C7
:10010000FE010E945105C136D107C9F70E946E0356
:100110000C945C050C940000CF92DF92EF92FF925A
:100120000F931F93CF93DF936C017A018B01C0E093
:10013000D0E0CE15DF0589F0D8016D918D01D60193
:10014000ED91FC910190F081E02DC6010995892B7C
:1001500011F47E0102C02196ECCFC701DF91CF914F
:100160001F910F91FF90EF90DF90CF900895089529
:1001700080E090E00895FC01538D448D252F30E000
:10018000842F90E0821B930B541710F0CF960895A4
:1001900001970895FC01918D828D981761F0828DF1
:1001A000DF01A80FB11D5D968C91928D9F5F9F73AB
:1001B000928F90E008958FEF9FEF0895FC01918D4D
:1001C000828D981731F0828DE80FF11D858D90E0BA
:1001D00008958FEF9FEF0895FC01918D228D892F57
:1001E00090E0805C9F4F821B91098F73992708953F
:1001F0008BE291E00E94EC0021E0892B09F420E0E1
:10020000822F0895FC01848DDF01A80FB11DA35A30
:10021000BF4F2C91848D90E001968F739927848F26
:10022000A689B7892C93A089B1898C9180648C931D
:10023000938D848D981306C00288F389E02D808108
:100240008F7D80830895EF92FF920F931F93CF933A
:10025000DF93EC0181E0888F9B8D8C8D981305C016
:10026000E889F989808185FD24C0F62E0B8D10E088
:100270000F5F1F4F0F731127E02E8C8DE8120CC0FB
:100280000FB607FCFACFE889F989808185FFF5CFA1
:10029000CE010E940201F1CF8B8DFE01E80FF11D0E
:1002A000E35AFF4FF0820B8FEA89FB8980818062DD
:1002B00007C0EE89FF896083E889F98980818064BD
:1002C000808381E090E0DF91CF911F910F91FF90AB
:1002D000EF900895CF93DF93EC01888D8823C9F0C8
:1002E000EA89FB89808185FD05C0A889B9898C913F
:1002F00086FD0FC00FB607FCF5CF808185FFF2CFDA
:10030000A889B9898C9185FFEDCFCE010E940201A9
:10031000E7CFDF91CF91089580E090E0892B29F01D
:100320000E94F80081110C9400000895833081F040
:1003300028F4813099F08230A1F008958730A9F037
:100340008830B9F08430D1F4809180008F7D03C073
:10035000809180008F7780938000089584B58F7797
:1003600002C084B58F7D84BD08958091B0008F77E1
:1003700003C08091B0008F7D8093B0000895CF932B
:10038000DF93282F30E0F901E255FF4F8491F90106
:10039000E656FF4FD491F901EA57FF4FC491CC23A1
:1003A00091F081110E949601EC2FF0E0EE0FFF1FFB
:1003B000E458FF4FA591B491EC91ED2381E090E0DA
:1003C00021F480E002C080E090E0DF91CF910895B9
:1003D0001F93CF93DF93282F30E0F901E255FF4FB1
:1003E0008491F901E656FF4FD491F901EA57FF4F86
:1003F000C491CC23C9F0162F81110E949601EC2FD5
:10040000F0E0EE0FFF1FEE58FF4FA591B4918FB7AC
:10041000F894111105C09C91ED2FE095E92302C0DD
:10042000EC91ED2BEC938FBFDF91CF911F9108954D
:10043000CF93DF9390E0FC01E656FF4F2491FC013F
:10044000EA57FF4F8491882361F190E0880F991F4C
:10045000FC01E859FF4FC591D491FC01EE58FF4FC4
:10046000A591B491611109C09FB7F8948881209536
:1004700082238883EC912E230BC0623061F49FB7F6
:10048000F8943881822F809583238883EC912E2BDA
:100490002C939FBF06C08FB7F894E8812E2B28833A
:1004A0008FBFDF91CF9108953FB7F89480911B01E2
:1004B00090911C01A0911D01B0911E0126B5A89B31
:1004C00005C02F3F19F00196A11DB11D3FBFBA2FE6
:1004D000A92F982F8827820F911DA11DB11DBC0146
:1004E000CD0142E0660F771F881F991F4A95D1F70B
:1004F00008958F929F92AF92BF920F931F93CF93C5
:10050000DF93CDB7DEB7A1970FB6F894DEBF0FBE6D
:10051000CDBF19A2423008F44AE08E010F5D1F4F93
:10052000842E912CA12CB12CA50194010E942F05A1
:10053000E62FB901CA0101501109EA3014F4E05D57
:1005400001C0E95CD801EC93232B242B252B61F708
:100550000115110571F0F80101900020E9F73197BC
:10056000AF01401B510BB8018BE291E00E948C005F
:1005700002C080E090E0A1960FB6F894DEBF0FBEF7
:10058000CDBFDF91CF911F910F91BF90AF909F9002
:100590008F9008950E9457051F920F920FB60F92E9
:1005A00011242F933F934F935F936F937F938F9378
:1005B0009F93AF93BF93EF93FF938BE291E00E94E1
:1005C0000201FF91EF91BF91AF919F918F917F9128
:1005D0006F915F914F913F912F910F900FBE0F90B0
:1005E0001F9018951F920F920FB60F9211242F9300
:1005F0008F939F93EF93FF93E0913B01F0913C0128
:100600008081E0914101F091420182FD12C0908110
:10061000809144018F5F8F7320914501821751F0C3
:10062000E0914401F0E0E55DFE4F958F8093440139
:1006300001C08081FF91EF919F918F912F910F9039
:100640000FBE0F901F9018951F920F920FB60F922A
:1006500011242F933F938F939F93AF93BF938091D8
:10066000170190911801A0911901B0911A013091D0
:10067000160123E0230F2D3720F40196A11DB11D93
:1006800005C026E8230F0296A11DB11D2093160177
:100690008093170190931801A0931901B0931A0148
:1006A00080911B0190911C01A0911D01B0911E0130
:1006B0000196A11DB11D80931B0190931C01A09375
:1006C0001D01B0931E01BF91AF919F918F913F91FA
:1006D0002F910F900FBE0F901F901895CF93DF931F
:1006E0001F92CDB7DEB7789484B5826084BD84B59F
:1006F000816084BD85B5826085BD85B5816085BD1D
:1007000080916E00816080936E00109281008091D4
:10071000810082608093810080918100816080935C
:100720008100809180008160809380008091B10081
:1007300084608093B1008091B00081608093B000AC
:1007400080917A00846080937A0080917A00826040
:1007500080937A0080917A00816080937A00809102
:100760007A00806880937A001092C100E0913B018A
:10077000F0913C0182E08083E0913701F0913801F3
:100780001082E0913901F0913A018FEC8083109250
:100790004301E0913F01F091400186E08083E091C8
:1007A0003D01F0913E01808180618083E0913D01B7
:1007B000F0913E01808188608083E0913D01F0915D
:1007C0003E01808180688083E0913D01F0913E018F
:1007D00080818F7D808361E082E00E94180261E069
:1007E00083E00E94180261E084E00E94180261E048
:1007F00085E00E94180262E088E00E94180262E030
:1008000089E00E94180262E08AE00E94180262E019
:100810008BE00E94180261E08DE00E94180260E007
:100820008DE00E94E801BB24B39452E0852E912C08
:1008300008E010E0AA24A3948091290190912A0154
:10084000409711F4B092280110922A0110922901C8
:100850009092270180922601E0902601F0902701D6
:1008600026E0E216F1040CF05AC092E061E0892F14
:1008700099830E94E80199819F5F9630B9F760E003
:100880008E2D0E94E8011093250100932401E09031
:100890002401F09025018CE0E816F104B4F58E2DCA
:1008A0000E94BF019093200180931F01892B19F4AE
:1008B000A09223010BC010922301809129019091F5
:1008C0002A01019690932A018093290180912301A6
:1008D000882399F080912601909127019C01225054
:1008E0003109C7010897880F991F880F991F820F38
:1008F000931F90932201809321012FEFE21AF20AB5
:10090000F0922501E0922401C2CF809126019091BE
:100910002701019690932701809326019DCF809116
:100920002801882309F46BC08091290190912A0144
:100930000F9709F064C0C0902101D09022010D2CC6
:10094000000CEE08FF08F7FE14C0E0912B01F091B7
:100950002C010190F081E02D6DE28BE291E0099590
:1009600066277727CB016C197D098E099F094AE01C
:1009700003C04AE0C701B6010E94790242E050E09C
:1009800062E171E08BE291E00E948C008091210194
:10099000909122010D9731F48DE00E94BF0161E03A
:1009A000892B09F060E08DE00E94E8011092280197
:1009B0000E9454022B013C018CE2C82EDD24D3940A
:1009C000E12CF12C0E945402DC01CB018419950921
:1009D000A609B709883E9340A105B10558F081E00A
:1009E000C81AD108E108F10828EE420E23E0521E91
:1009F000611C711CC114D104E104F10419F70E94B7
:100A00008C011ACFEBE2F1E01382128288EE93E0C0
:100A1000A0E0B0E084839583A683B78384E091E06F
:100A20009183808385EC90E09587848784EC90E0C7
:100A30009787868780EC90E0918B808B81EC90E0AB
:100A4000938B828B82EC90E0958B848B86EC90E08C
:100A5000978B868B118E128E138E148E0895A1E2C1
:100A60001A2EAA1BBB1BFD010DC0AA1FBB1FEE1F28
:100A7000FF1FA217B307E407F50720F0A21BB30B73
:100A8000E40BF50B661F771F881F991F1A9469F7EF
:100A900060957095809590959B01AC01BD01CF014B
:100AA0000895EE0FFF1F0590F491E02D099481E069
:0C0AB00090E0F8940C945C05F894FFCFE3
:100ABC000000000023018C00BB006A01EC00CA009E
:060ACC00DE000D0A00002F
:107E0000112484B714BE81FFF0D085E080938100F7
:107E100082E08093C00088E18093C10086E0809377
:107E2000C20080E18093C4008EE0C9D0259A86E02C
:107E300020E33CEF91E0309385002093840096BBD3
:107E4000B09BFECF1D9AA8958150A9F7CC24DD24C4
:107E500088248394B5E0AB2EA1E19A2EF3E0BF2EE7
:107E6000A2D0813461F49FD0082FAFD0023811F036
:107E7000013811F484E001C083E08DD089C08234E0
:107E800011F484E103C0853419F485E0A6D080C0E4
:107E9000853579F488D0E82EFF2485D0082F10E0AE
:107EA000102F00270E291F29000F111F8ED06801E7
:107EB0006FC0863521F484E090D080E0DECF843638
:107EC00009F040C070D06FD0082F6DD080E0C81688
:107ED00080E7D80618F4F601B7BEE895C0E0D1E017
:107EE00062D089930C17E1F7F0E0CF16F0E7DF06D8
:107EF00018F0F601B7BEE89568D007B600FCFDCFD4
:107F0000A601A0E0B1E02C9130E011968C91119780
:107F100090E0982F8827822B932B1296FA010C0160
:107F200087BEE89511244E5F5F4FF1E0A038BF0790
:107F300051F7F601A7BEE89507B600FCFDCF97BE46
:107F4000E89526C08437B1F42ED02DD0F82E2BD052
:107F50003CD0F601EF2C8F010F5F1F4F84911BD097
:107F6000EA94F801C1F70894C11CD11CFA94CF0C13
:107F7000D11C0EC0853739F428D08EE10CD085E9AC
:107F80000AD08FE07ACF813511F488E018D01DD067
:107F900080E101D065CF982F8091C00085FFFCCF94
:107FA0009093C60008958091C00087FFFCCF809118
:107FB000C00084FD01C0A8958091C6000895E0E648
:107FC000F0E098E1908380830895EDDF803219F02E
:107FD00088E0F5DFFFCF84E1DECF1F93182FE3DFCA
:107FE0001150E9F7F2DF1F91089580E0E8DFEE27F6
:047FF000FF270994CA
:027FFE00040479
:0400000300007E007B
:00000001FF
